:020000040800F2
:10000000001000106B5E0008E55E0008ED5E000861
:10001000E55E0008E55E0008E55E000800000000FF
:10002000000000000000000000000000E55E000885
:10003000E55E000800000000E55E0008E55E0008DF
:10004000E55E0008E55E0008E55E0008E55E000884
:10005000E55E0008E55E0008E55E0008E55E000874
:10006000E55E0008E55E0008E55E0008E55E000864
:10007000E55E0008E55E0008E55E0008E55E000854
:10008000E55E0008E55E0008E55E0008E55E000844
:10009000E55E0008E55E0008E55E0008E55E000834
:1000A000E55E0008E55E0008E55E0008E55E000824
:1000B000E55E0008E55E0008E55E0008E55E000814
:1000C000E55E0008E55E0008E55E0008E55E000804
:1000D000E55E0008E55E0008E55E0008E55E0008F4
:1000E000E55E0008E55E0008E55E0008E55E0008E4
:1000F000E55E0008E55E0008E55E0008E55E0008D4
:10010000E55E0008E55E0008E55E0008E55E0008C3
:10011000E55E0008E55E0008E55E0008E55E0008B3
:10012000E55E0008E55E0008E55E0008E55E0008A3
:10013000E55E0008E55E0008E55E0008E55E000893
:10014000E55E0008E55E0008E55E0008E55E000883
:10015000E55E0008E55E0008E55E0008E55E000873
:10016000E55E0008E55E0008E55E0008E55E000863
:10017000E55E0008E55E0008E55E0008E55E000853
:10018000E55E0008E55E0008E55E0008E55E000843
:10019000E55E000800000000E55E0008E55E00087E
:1001A000E55E0008E55E0008E55E0008E55E000823
:1001B000E55E0008E55E0008E55E0008000000005E
:1001C000E55E0008E55E0008E55E0008E55E000803
:0801D000E55E0008E55E000891
:1001E00080B483B000AF0346FB71FB79062B1FD8A8
:1001F00001A252F823F000BF1502000819020008FE
:100200001D0200082102000825020008290200083A
:100210002D0200080A4B0CE00A4B0AE00A4B08E0EA
:100220000A4B06E00A4B04E00A4B02E00A4B00E0EE
:100230000A4B18460C37BD465DF8047B704700BF7B
:10024000988A0008A08A0008A88A0008B08A0008D6
:10025000B88A0008C08A0008C88A0008D08A000846
:1002600080B483B000AF0346FB71FB79062B1FD827
:1002700001A252F823F000BF95020008990200087D
:100280009D020008A1020008A5020008A9020008BA
:10029000AD0200080A4B0CE00A4B0AE00A4B08E0EA
:1002A0000A4B06E00A4B04E00A4B02E00A4B00E06E
:1002B0000A4B18460C37BD465DF8047B704700BFFB
:1002C000D88A0008E08A0008EC8A0008F48A00084E
:1002D000008B0008088B0008148B0008208B000896
:1002E00080B483B000AF0346FB71FB79052B1BD8AC
:1002F00001A252F823F000BF110300081503000803
:10030000190300081D030008210300082503000845
:1003100014230AE0322308E01E2306E0282304E029
:10032000322302E01E2300E0002318460C37BD46AE
:100330005DF8047B704780B586B000AFF860B960A7
:100340007A60BB687A6802FB03F3174A82FB0312E8
:100350005211DB17D31A7B617A697B689A4201DDFF
:100360007B687B61F968114806F010FF00233B6150
:100370000DE03A697B699A4203DA0D4806F006FF00
:1003800002E00C4806F002FF3B6901333B613A6929
:100390007B689A42EDDBB968074806F0F7FE00BFBC
:1003A0001837BD4680BD00BF1F85EB51288B000864
:1003B000348B0008388B00083C8B000880B582B075
:1003C00000AF0A2006F00EFF154806F0DFFE0023FE
:1003D0007B6005E0134806F0D9FE7B6801337B6043
:1003E0007B683A2BF6DD104806F082FF0F4806F0D6
:1003F0007FFF0F4806F0CAFE00233B6005E0094876
:1004000006F0C4FE3B6801333B603B683A2BF6DDE7
:10041000084806F06DFF00BF0837BD4680BD00BF2D
:10042000448B0008488B00084C8B0008508B000858
:10043000948B0008988B00082DE9F04798B008AF1E
:1004400078607C4806F054FF7B4806F09FFE00234E
:10045000FB6305E0794806F099FEFB6B0133FB6313
:10046000FB6B072BF6DD764806F090FE0023BB639E
:1004700005E0724806F08AFEBB6B0133BB63BB6BC1
:10048000072BF6DD6E4806F081FE00237B6305E056
:100490006A4806F07BFE7B6B01337B637B6B0A2B28
:1004A000F6DD674806F072FE00233B6305E0634813
:1004B00006F06CFE3B6B01333B633B6B052BF6DDBB
:1004C0005F4806F063FE0023FB6205E05B4806F030
:1004D0005DFEFB6A0133FB62FB6A052BF6DD5848C3
:1004E00006F054FE0023BB6205E0544806F04EFEC1
:1004F000BB6A0133BB62BB6A062BF6DD514806F0CE
:10050000F7FE00237B627BE04F4A7B6A13441B7833
:1005100083F00103DBB2002B06D07B6A013319465E
:100520004A4806F033FE68E07B6A4FF4F76202FB4C
:1005300003F3474A1344FB61FB691B6907EE903ADA
:10054000B8EEE77ADFED436AC7EE267A9FED427A8E
:1005500067EE877AC7ED067AFB695B6907EE903A2A
:10056000B8EEE77ADFED3B6AC7EE267AC7ED057A8B
:10057000D7ED057A9FED397A67EE877AB3EE097A7F
:1005800077EE877AC7ED047AFB699B6907EE903AAC
:10059000B8EEE77ADFED2F6AC7EE267A9FED2E7A66
:1005A00067EE877AC7ED037A7B6A5E1CFB691B7A6C
:1005B0001846FFF715FE8246FB69D3F840323B60D0
:1005C000B86905F099FE04460D46386905F094FEB9
:1005D00080468946F86805F08FFE02460B46CDE955
:1005E0000623CDE90489CDE90245072300933B6842
:1005F000524631461A4806F0C9FD7B6A01337B62D8
:100600007B6A062B80DD174806F0C0FD00233B62A5
:1006100005E00A4806F0BAFD3B6A01333B623B6ADB
:100620003A2BF6DD104806F063FE00BF4037BD46AA
:10063000BDE8F0879C8B0008948B0008488B00086D
:10064000E08B0008988B000878360020E48B0008C7
:1006500070000020000080470000C84200004842AF
:100660002C8C00087C8C0008808C000880B588B039
:1006700000AF78603D4806F03BFE7B68FB600023DE
:10068000FB610023BB6100237B6100233B61FB68AE
:10069000002B0DD0FB68642202FB03F3344AA2FB5B
:1006A00003231B09FB61FB69642B01DD6423FB61F0
:1006B0007B68142B38BF1423143BFB60FB68002BB2
:1006C0000DD0FB68642202FB03F32A4AA2FB03233A
:1006D0001B09BB61BB69642B01DD6423BB617B68C3
:1006E000642B38BF6423643BFB60FB68002B0DD098
:1006F000FB68642202FB03F31D4AA2FB03235B0990
:100700007B617B69642B01DD64237B617B688C2BBF
:1007100038BF8C238C3BFB60FB68002B0DD0FB6843
:10072000642202FB03F3134AA2FB03231B093B6170
:100730003B69642B01DD64233B611422F9690E4897
:10074000FFF7F9FD1422B9690C48FFF7F4FD1422F4
:1007500079690B48FFF7EFFD142239690948FFF763
:10076000EAFD00BF2037BD4680BD00BF848C000875
:10077000CDCCCCCC1F85EB51D88A0008E08A00088C
:10078000F48A0008988C000880B582B000AF7860C9
:10079000214806F0FBFCFFF711FE7868FFF74CFEDE
:1007A0007868FFF763FF1D4B1B781846FFF758FD6D
:1007B0000146DC237A681A4806F0E8FC194806F07E
:1007C00097FD194B1B78002B01D0582300E0202304
:1007D0001946164806F0DAFC154B1B78002B01D0A1
:1007E000582300E020231946124806F0CFFC124B94
:1007F0001B78002B01D0582300E0202319460F4816
:1008000006F0C4FC0E4B1B689B68184606F060F9A6
:1008100000BF0837BD4680BDA08C0008F036002020
:10082000A88C0008CC8C0008F8360020DC8C00086E
:10083000F9360020FC8C0008FA360020188D0008DC
:100840000C00002090B583B000AF786039607B6801
:100850001B78013B134AD35C83F00103DBB2002B0E
:100860001BD13B681B78013B0E4AD35C83F001032C
:10087000DBB2002B11D13B6803F178007B6819785B
:100880007B68D3F87A201446B3F87E20002362F305
:100890000F03224601F038FC00E000BF0C37BD46D4
:1008A00090BD00BF7836002080B584B000AF002333
:1008B000FB6021E00023BB6018E0FA68BB689A4245
:1008C00011D0FB684FF4F76202FB03F31B4A1A4492
:1008D000BB684FF4F76101FB03F318490B44194659
:1008E0001046FFF7AFFFBB680133BB60BB68062B48
:1008F000E3DDFB680133FB60FB68062BDADD0023D8
:100900007B6013E00E4A7B6813441B78002B0AD0EF
:100910007B684FF4F76202FB03F37833074A134412
:10092000184601F0A1FC7B6801337B607B68062BD5
:10093000E8DD00BF00BF1037BD4680BD700000205D
:100940007836002080B582B000AF00237B6021E0C4
:10095000144A7B6813441B7883F00103DBB2002B3D
:1009600014D1114A7B684FF4F76101FB03F3134480
:100970001A787B684FF4F76101FB03F310330A49DF
:100980000B441946104600F0E1FD00E000BF7B6813
:1009900001337B607B68062BDADD00BF00BF0837C0
:1009A000BD4680BD783600207000002080B586B03E
:1009B00000AF786039607B681B7807EE903AF8EEFC
:1009C000677A9FED417A67EE877AC7ED047AD7EDB3
:1009D000047A9FED3E7A67EE877AFDEEE77A17EEAE
:1009E000902A3B681A443A4BA3FB02131B0932219D
:1009F00001FB03F3D31A07EE903AB8EE677ADFED06
:100A0000336AC7EE267A9FED337A67EE877A9FEDD9
:100A1000327A77EE877AC7ED037A7B681B7807EE28
:100A2000903AF8EE677A9FED2D7A67EE877A9FED20
:100A3000297A37EE877A3B6807EE903AF8EE677AC4
:100A4000DFED276A67EEA67A77EE277AC7ED057A9B
:100A5000D7ED057A9FED237AF4EEC77AF1EE10FA1E
:100A600001DD214B7B61D7ED037AB6EE007A67EEAC
:100A7000877A9FED187A77EE877AC7ED027AD7EDFD
:100A8000037A9FED1A7A67EE877AFDEEE76AD7ED73
:100A9000057A9FED167A67EE877ABDEEE76AD7EDA5
:100AA000027A9FED127A67EE877AFDEEE77A17EE0B
:100AB000903A16EE102A16EE901A786803F019FA9A
:100AC00000BF1837BD4680BD9A99193E00004842C4
:100AD0001F85EB519A99993ECDCCCC3E8FC2F53C07
:100AE0006F12833A9A99593F9A99593F000080476B
:100AF00080B584B000AF78601F4A7B684FF4F7611F
:100B000001FB03F313441B7819461C4B1B681A4660
:100B10001B4806F03BFB1B4A7B68134400221A70FB
:100B20000023FB6020E0FA687B689A4219D0154ADE
:100B3000FB6813441B78002B13D0FB684FF4F7625B
:100B400002FB03F378330C4A1A440B497B684FF4D9
:100B5000F76000FB03F30B441B781946104601F0C5
:100B60000AFBFB680133FB60FB68062BDBDD00BF83
:100B700000BF1037BD4680BD70000020F436002055
:100B8000388D00087836002080B586B002AF324834
:100B900006F0AEFB314B00934AF685336422002108
:100BA0002F4802F0D5F90346FB7197F90730002B67
:100BB0000BD097F9073019462A4806F0E7FA2A4B76
:100BC0001B680133284A136043E00123FB601DE0EA
:100BD000264AFB6813441B78002B14D0FB684FF4A3
:100BE000F76202FB03F303F55E73214A9818204B6A
:100BF00019781A4B1A884AF68533019364230093B7
:100C0000002302F0F9FBFB680133FB60FB68062B55
:100C1000DEDD184806F06CFB0023BB6016E0134ACB
:100C2000BB6813441B78002B0DD0114ABB684FF4EE
:100C3000F76101FB03F313441978084B1A88012369
:100C4000074802F0F5FABB680133BB60BB68062BAE
:100C5000E5DD1037BD4680BD608D000800370020FF
:100C6000E80300208C8D0008FC3600207836002038
:100C700070000020AC8D0008B0B582B000AFC7E9AD
:100C80000001D7E900234CF23871541843F10005F4
:100C900022462B46144802F07CFC144B1B88194654
:100CA000114802F04FFC03461A46114B1A70104BC4
:100CB0001B78012B09D10F4806F01AFB0E4806F0ED
:100CC00017FB0E4B01221A700AE0094B1B781946DC
:100CD0000B4806F05BFA0B4B1B680133094A1360A3
:100CE00000BF0837BD46B0BDE80300200037002034
:100CF00002370020D08D0008EC8D0008F936002066
:100D00000C8E0008FC36002080B582B000AF034690
:100D10003960FB71094AFB791370094A3B6813601B
:100D2000FB791846FFF79CFA03463A6819460548CE
:100D300006F02CFA00BF0837BD4680BDF036002013
:100D4000F4360020388E000880B58CB000AFF86013
:100D5000C7E90023854B1B68FA68D31A7B61844B73
:100D60001B78062B00F2FE8001A252F823F000BF90
:100D70008D0D00089F0D0008330E0008490E000875
:100D80007B0E00083B0F00084B0F00087B69132BFC
:100D900040F2DD80F9680120FFF7B6FFD7E07969FE
:100DA000744BA3FB0123DA0813469B0013445B003A
:100DB000CA1A002A01D1FFF777FD7B69312B40F277
:100DC000C880012387F82F300023BB6218E06A4AED
:100DD000BB6A13441B78002B0FD0684ABB6A4FF4E0
:100DE000F76101FB03F3134403F510731B68052B34
:100DF00003D8002387F82F3005E0BB6A0133BB62BC
:100E0000BB6A062BE3DD97F82F30002B0CD05C4B30
:100E10001B7883F00103DBB2002B05D0594806F0A4
:100E200067FA574B01221A70F9680220FFF76CFF2E
:100E30008FE07B691D2B40F28E80F9680320FFF75D
:100E400063FFFFF7A1FE86E07B69132B0AD94E4BA7
:100E50001B7883F00103DBB2002B03D0D7E900013C
:100E6000FFF70AFF7B69272B77D9F9680420FFF782
:100E70004BFF0320FFF73CFE6FE079693D4BA3FB7E
:100E80000123DA0813469B0013445B00CA1A002AA8
:100E900019D100237B6213E0374A7B6A13441B7825
:100EA000002B0AD07B6A4FF4F76202FB03F378331E
:100EB000324A1344184601F0D7F97B6A01337B624A
:100EC0007B6A062BE8DD7B69312B48D9012387F843
:100ED00023300023FB610023BB611CE0264ABB6971
:100EE00013441B78002B13D0FB690133FB61234AA9
:100EF000BB694FF4F76101FB03F3134403F510736F
:100F00001B68FA69013A934202D2002387F8233022
:100F1000BB690133BB61BB69062BDFDD97F823306A
:100F2000002B05D0194806F0E3F9194B01221A707D
:100F3000F9680520FFF7E8FE11E07B691D2B10D949
:100F4000F9680620FFF7E0FE0BE000BF0AE000BFF3
:100F500008E000BF06E000BF04E000BF02E000BF01
:100F600000E000BF00BF3037BD4680BDF436002032
:100F7000F0360020CDCCCCCC78360020700000209C
:100F8000F83600205C8E0008F93600207C8E0008C0
:100F9000FA360020F0B5ADF60C0D02AF0A2006F0CF
:100FA00021F9514806F0A4F9504806F0A1F950483B
:100FB00006F09EF94C4806F09BF90A2006F012F95B
:100FC0004C4806F095F903F05DFB034687F8EB37D4
:100FD00097F9EB37002B0AD097F9EB3719464648BB
:100FE00006F0D4F8454806F083F9012334E204F012
:100FF00061F9034687F8EA3797F8EA371946404817
:1010000006F0C4F897F8EA375A1E3E4B83FB0231CC
:10101000D317C91A0B465B000B44D11A0AB207F565
:101020000063A3F5FD631A8097F8EA37013B354A60
:1010300082FB0312DB17D31A1AB207F50063A3F57C
:10104000FD635A8007F50063A3F5FD6300229A80D3
:1010500097F8EA3707F108002B4A102106F0A2F9A9
:1010600007F50063A3F5FD6307F1080697F8EA1793
:1010700007F120009A88ADF800201B68324602F084
:1010800002FD034687F8EB3797F9EB37002B0AD0C0
:1010900097F9EB3719461D4806F078F8174806F01F
:1010A00027F90123D8E107F12003184602F086FD55
:1010B00097F8EA371946164806F068F8002387F8CB
:1010C000FF37002387F8FE37002387F8FD3700231A
:1010D000C7F8F83703F082FB07F5FE63C3E90001A8
:1010E0000C4806F005F949E1A08E0008E08E0008E2
:1010F000208F0008608F0008888F0008A88F0008E4
:10110000B48F000856555555D08F0008D88F000869
:1011100000900008309000089A99193E000048425B
:1011200007F5FE63D3E9002342F21071541843F12E
:10113000000507F5FE63C3E900454FF47A7003F03C
:101140005FFB07F1200107F5FE63D3E900230846A2
:1011500002F06AFD97F8EA3707EE903AF8EE677A00
:101160001FED137A67EE877A07F2E473C3ED007A16
:1011700007F2E473D3ED007A1FED187A67EE877AF1
:10118000FDEEE77A17EE902AD7F8F8371A44B54BF8
:10119000A3FB02131B09322101FB03F3D31A07EE51
:1011A000903AB8EE677ADFEDB06AC7EE267A9FED27
:1011B000AF7A67EE877A9FEDAE7A77EE877A07F59A
:1011C000FC63C3ED007A97F8EA3707EE903AF8EE41
:1011D000677A9FEDA87A67EE877A9FEDA47A37EE5B
:1011E000877AD7F8F83707EE903AF8EE677ADFEDAE
:1011F000A26A67EEA67A77EE277A07F2EC73C3ED60
:10120000007A07F2EC73D3ED007A9FED9C7AF4EE4E
:10121000C77AF1EE10FA03DD994B07F2EC72136016
:1012200007F5FC63D3ED007AB6EE007A67EE877AB5
:101230009FED8E7A77EE877A07F2DC73C3ED007A42
:1012400007F5FC63D3ED007A9FED8E7A67EE877A1F
:10125000FDEEE76A07F2EC73D3ED007A9FED897A31
:1012600067EE877ABDEEE76A07F2DC73D3ED007AAA
:101270009FED847A67EE877AFDEEE77A07F120002A
:1012800017EE903A16EE102A16EE901A02F031FE82
:1012900097F8FF3783F00103DBB2002B14D007F57A
:1012A0000063A3F5FC63D3F84032052B0CD907F596
:1012B0000063A3F5FC63D3F840321946724805F089
:1012C00065FF012387F8FF3797F8FE3783F00103A6
:1012D000DBB2002B30D007F50063A3F5FC631B7A6B
:1012E000022B29D197F8EA37012B25D1D7F8F83707
:1012F000642B21D907F1200303F55E70BB1D009319
:101300004AF685336422002101F022FE034687F865
:10131000EB3797F9EB37002B0ED107F50063A3F2FB
:10132000FA731B881946594805F030FF012387F8E6
:10133000FE37574805F0DCFFD7F8F827494BA3FBE9
:1013400002135B09642101FB03F3D31A002B10D1B4
:1013500007F50063A3F5FC631B7A1A4607F50063E3
:10136000A3F5FC63D3F84032D7F8F817494805F0E5
:101370000DFFD7F8F8370133C7F8F837D7F8F83743
:10138000DB2B7FF6CDAE07F50063A3F5FC63D3F846
:101390004032042B0CD907F50063A3F5FC63D3F8A6
:1013A000403219463C4805F0F1FE012387F8FD372D
:1013B00097F8EA371946394805F0E8FE07F12003A7
:1013C000184602F01DFC0A2005F00CFF344805F019
:1013D0008FFF97F8EA371946324805F0D7FE3048B4
:1013E00005F086FF0A2005F0FDFE2F4805F080FF7E
:1013F00097F8FF37002B01D02C4B00E02C4B1946FF
:101400002C4805F0C3FE97F8FE37002B01D0274B80
:1014100000E0294B1946294805F0B8FE97F8FD373A
:10142000002B01D0214B00E0234B1946244805F046
:10143000ADFE0A2005F0D6FE97F8FF37002B07D047
:1014400097F8EA3719461F4805F0A0FE002303E08D
:101450001D4805F04DFF0123184607F60407BD4659
:10146000F0BD00BF1F85EB51000048429A99993E9C
:10147000CDCCCC3E8FC2F53C6F12833A9A99593F3E
:101480009A99593F000080476090000890900008AA
:10149000EC8D0008C0900008E89000081C9100083E
:1014A000A08E0008409100088091000890910008EB
:1014B00098910008A0910008C0910008C891000808
:1014C000E4910008049200083492000880B500AF4F
:1014D000FFF760FD0346184680BD00BF80B584B0AD
:1014E00000AF78607B68002B02D14FF0FF3326E01D
:1014F00043F228020021786805F024FD0023FB60F8
:1015000016E07968FA6813465B0013441B010B442C
:10151000203300221A707968FA6813465B0013447E
:101520001B010B44283300221A60FB680133FB6067
:10153000FB68FF2BE5DD044A7B6813600023184637
:101540001037BD4680BD00BF0437002080B58AB08B
:1015500000AF03463960FB713B4B1B68002B02D187
:101560006FF00A036CE0FB79002B02D14FF0FF33E0
:1015700066E03B68002B02D14FF0FF3360E003F0E0
:101580002DF9C7E90601304B1968FA7913465B005B
:1015900013441B010B447B6103F087FD7B699B6A4D
:1015A0005A1C7B699A6203F080FD00237B620AE08B
:1015B0003B687A6A53F822107B697A6A43F82210F2
:1015C0007B6A01337B627B6A052BF1DD7969D7E9A0
:1015D0000623C1E906237B69FA7983F820207B6919
:1015E0009B6ADAB27B6983F8212003F05EFD7B6998
:1015F0009B6A5A1C7B699A62FB795B09DBB23B618F
:10160000FB7903F01F03012202FA03F3FB6003F0EE
:1016100031FDB8600C4B1B683A6902F5406253F823
:101620002210094B1B68FA6811433A6902F54062BF
:1016300043F82210B86803F02BFD03F097FD002358
:1016400018462837BD4680BD04370020B0B588B0A5
:1016500000AF03463960FB71324B1B68002B02D18F
:101660006FF00A0359E0FB79002B02D14FF0FF33F2
:1016700053E03B68002B02D14FF0FF334DE003F005
:10168000ADF8C7E90601274B1968FA7913465B00E4
:1016900013441B010B447B6103F007FD7B699B6ACC
:1016A0003B613B6903F00103002B02D06FF00303A1
:1016B00033E003F0FAFC7B6993F82030002B02D171
:1016C0006FF0040329E07B69D3E90623D7E906011B
:1016D000841A61EB0305C7E90245D7E902231249E1
:1016E0008A4273F1000302D36FF0090315E07B69AE
:1016F00028221946386805F08BFB03F0D6FC7B697D
:101700009B6A3A699A4202D06FF0030305E0D7E979
:101710000223386800F055F9002318462037BD46EB
:10172000B0BD00BF0437002021A107002DE9B04F54
:10173000A6B000AFB9607A603B600346FB73BB683C
:10174000002B02D03B68002B02D14FF0FF33E3E0C7
:1017500028220021386805F0F5FB7B68002B01D1B9
:101760000023D9E007F1380330220021184605F0A4
:10177000E9FB0023C7F894300023C7F890304FF0FE
:1017800000024FF00003C7E922230023C7F884308A
:1017900089E0D7F884309B01BA6813447B677B6F7C
:1017A0005B78032B77D07B6F5B78002B73D07B6FDC
:1017B0001B7807F1100211461846FFF747FF034652
:1017C00087F8733097F97330002B66D14FF480336C
:1017D000C7F880307B6F5B78022B03D14FF4004356
:1017E000C7F880307B6F9B6B002B11DD7B6F9B6B91
:1017F0001B0203F5803319464FF4803003F0AEFD31
:10180000F866F96ED7F8800003F080FDC7F8800015
:101810000023FB6723E0FB6F9B0098333B4453F8A6
:10182000883CD7F88010184603F070FD0346DA179D
:101830001C461546FB6FDB0098333B44603BD3E905
:10184000002314EB020845EB0309FB6FDB00983320
:101850003B44603BC3E90089FB6F0133FB67FB6FCF
:10186000052BD8DDD7F89420D7F880301344C7F87B
:101870009430D7F890300133C7F89030D7E90A2375
:10188000D7E92201904271EB030307D2D7E90A237B
:10189000C7E9222302E000BF00E000BFD7F8843090
:1018A0000133C7F88430D7F884207B689A42FFF46C
:1018B00070AFD7F89430002B20DD0023BB671AE00F
:1018C000BB6FDB0098333B44603BD3E90001D7F8A2
:1018D00094301B14DA179A46934652465B4604F03E
:1018E00071FE02460B4611463B68BA6F43F8221060
:1018F000BB6F0133BB67BB6F052BE1DD3968D7E9EF
:101900002223C1E906233B68002283F820203B689C
:10191000002283F82120002318469837BD46BDE8F1
:10192000B08F80B485B000AFF860B9601346FB712A
:10193000FB68002B02D0BB68002B01D100230DE017
:10194000FB79052B01D9002308E0FA79BB6853F82D
:101950002220F979FB6853F82130D31A184614373E
:10196000BD465DF8047B704780B487B000AFF86077
:10197000B9607A60FB68002B1DD0BB68002B1AD0C1
:101980007B68002B17D000237B6110E0BB687A696D
:1019900053F82210FB687A6953F822207B699B0078
:1019A000786803448A1A1A607B6901337B617B691A
:1019B000052BEBDD00E000BF1C37BD465DF8047B66
:1019C000704780B586B000AFF860C7E90023FB68B8
:1019D000002B1ED0114BD3E90023D7E9000103F0FF
:1019E000E9FC386100237B610FE0FB687A6953F8FA
:1019F00022303969184603F089FC0146FB687A6990
:101A000043F822107B6901337B617B69052BECDD98
:101A100000E000BF1837BD4680BD00BF00000020B9
:101A2000B0B58AB000AFC7E90001264B1B68002B98
:101A300001D1002342E002F0D1FEC7E906010023F4
:101A40007B6200233B622BE01E4B19683A6A134607
:101A50005B0013441B010B447B617B6993F82030CE
:101A6000002B19D07B69D3E90623D7E90601841A34
:101A700061EB0305C7E90245D7E90223D7E9000175
:101A8000904271EB030308D27B69002283F8202087
:101A90007B6A01337B6200E000BF3B6A01333B623B
:101AA0003B6AFF2BD0DD074B1B6803F54053203307
:101AB0001946D7E90623C1E900237B6A184628376F
:101AC000BD46B0BD0437002080B487B000AFF860D9
:101AD000B9607A60FB68002B37D0BB68002B34D02C
:101AE0007B68002B31D000237B610FE0BB687A69F3
:101AF00053F822207B68796953F82130D118FB68AC
:101B00007A6943F822107B6901337B617B69052B7D
:101B1000ECDD7B68D3E90623B968D1E9060182428E
:101B200073EB010C01D202460B46F968C1E90623AA
:101B3000BB6893F82020FB6883F82020BB6893F8EB
:101B40002120FB6883F8212000E000BF1C37BD4640
:101B50005DF8047B704780B584B000AF7860396071
:101B60007B68002B16D00023FB600FE07B68FA68CF
:101B700053F822303968184603F0C8FB01467B68E9
:101B8000FA6843F82210FB680133FB60FB68052B01
:101B9000ECDD00E000BF1037BD4680BD80B588B0E9
:101BA00000AFF860B9607A603B60FB68002B53D0EF
:101BB000BB68002B50D07B68002B4DD03B68002BBE
:101BC00001DA00233B603B68B3F5803F02DD4FF450
:101BD00080333B603B68C3F58033BB610023FB610E
:101BE0001BE0BB68FA6953F82230B969184603F064
:101BF0008DFB78617B68FA6953F8223039681846A2
:101C000003F084FB38617A693B69D118FB68FA6993
:101C100043F82210FB690133FB61FB69052BE0DD12
:101C20007B68D3E90623B968D1E90601824273EBE8
:101C3000010C01D202460B46F968C1E90623BB68D4
:101C400093F82020FB6883F82020BB6893F82120BC
:101C5000FB6883F8212000E000BF2037BD4680BD2F
:101C600080B400AF034B1B681846BD465DF8047B8B
:101C7000704700BF0437002080B485B000AF7860A3
:101C80000B46FB700023FB600DE07A68FB68134491
:101C900003F5E6731B78FA789A4201D1FB680AE0F3
:101CA000FB680133FB607B68D3F8CC32FA689A4258
:101CB000EBD34FF0FF3318461437BD465DF8047B75
:101CC000704780B485B000AF78600B46FB7000238E
:101CD000FB600DE07A68FB689B01134408331B78B6
:101CE000FA789A4201D1FB680AE0FB680133FB6095
:101CF0007B68D3F8C831FA689A42EBD34FF0FF33D0
:101D000018461437BD465DF8047B704780B586B031
:101D100000AFF8600846394681E80C000346FB72C4
:101D2000FB7A1946F868FFF7A7FF78617B69002BFB
:101D30000EDB1D497A6913465B0013445B000B44BC
:101D40001A463B46186810609B8893807B6927E0A1
:101D5000FB68D3F8CC32FF2B02D94FF0FF331FE0E2
:101D6000FB68D3F8CC327B61FA687B69134403F5D6
:101D7000E673FA7A1A700C497A6913465B001344C9
:101D80005B000B441A463B46186810609B889380A2
:101D9000FB68D3F8CC325A1CFB68C3F8CC227B69B1
:101DA00018461837BD4680BD0837002080B584B07E
:101DB00000AF78600B46FB70FB7819467868FFF738
:101DC0005BFFB860BB68002B35DBBB68FB6023E0C2
:101DD000FB6801337A68134493F8CC117A68FB6886
:101DE000134403F5E6730A461A70FB685A1C14483C
:101DF000F9680B465B000B445B001844104913461E
:101E00005B0013445B00CA1803461168196092888E
:101E10009A80FB680133FB607B68D3F8CC32013BCE
:101E2000FA689A42D4D37B68D3F8CC325A1E7B68C6
:101E3000C3F8CC2200E000BF1037BD4680BD00BF14
:101E40000837002090B488B000AF07F1080484E898
:101E50000300394681E80C00B7F908301A46B7F993
:101E60000030D31AFB61B7F90A301A46B7F90230CD
:101E7000D31ABB61B7F90C301A46B7F90430D31A3C
:101E80007B61FB6903FB03F2BB6903FB03F31A44A9
:101E90007B6903FB03F3134418462037BD4690BC0F
:101EA000704780B485B000AF78607B68002B01DCA0
:101EB00000231EE07B68012B01D1012319E07B6820
:101EC000FB60FB680133DA0F13445B10BB600BE06F
:101ED000BB68FB607A68FB6892FBF3F2FB68134413
:101EE000DA0F13445B10BB60BA68FB689A42EFDB01
:101EF000FB6818461437BD465DF8047B704780B414
:101F000083B000AF786039607B685A683B685B6873
:101F10009A4209D07B685A683B685B689A42B4BFB2
:101F200001230023DBB208E07B681A783B681B784A
:101F30009A4234BF01230023DBB218460C37BD465A
:101F40005DF8047B704790B589B000AF7860396068
:101F50000123FB613BE0FB691B017A68134407F135
:101F600008040FCB84E80F00FB69013BBB6110E064
:101F7000BB691B017A68D118BB6901331B017A6800
:101F800013441C460B460FCB84E80F00BB69013B92
:101F9000BB61BB69002B0CDBBB691B017A681A446F
:101FA00007F1080311461846FFF7A9FF0346002B67
:101FB000DED1BB6901331B017A6813441C4607F16B
:101FC00008030FCB84E80F00FB690133FB61FA695A
:101FD0003B689A42BFD300BF00BF2437BD4690BDC7
:101FE00080B586B000AF786002233B737B681B78B6
:101FF0007B737A6807F10E030232116819609288C8
:102000009A807B68D3F8C831DBB23B7502237B75BD
:10201000094B1B885A1C91B2074A1180FB8207F1B9
:102020000C030C221946022002F0F4FE0346184667
:102030001837BD4680BD00BF0C3D0020B0B58EB046
:1020400000AFF8600846394681E80C000346FB7291
:10205000FB68002B02D0FB7A002B02D14FF0FF333C
:102060004BE04FF440720021F86804F06BFFFB680E
:10207000FA7A1A70FB6802333A4610681860928840
:102080009A80BB6C002B0BD0FB68BA6C03F53874DC
:1020900015460FCD0FC495E80F0084E80F0014E03B
:1020A000184B07F110041D460FCD0FC495E80F0023
:1020B00084E80F00FB6803F5387407F110050FCDB5
:1020C0000FC495E80F0084E80F0000237B6310E045
:1020D000FA687B6B9B011344083300221A70FA687C
:1020E0007B6B9B011344093300221A707B6B013315
:1020F0007B637B6B062BEBD9002318463837BD4634
:10210000B0BD00BF5892000880B586B000AFF8603F
:102110000846394681E80C000346FB72FB68002B39
:1021200002D0FB7A002B02D14FF0FF331FE0FB6897
:102130001B78FA7A9A4201D1002318E0F97A3B46DB
:102140000CCBF868FFF7E2FD78617B69002B02DABF
:102150006FF001030BE0FB68D3F8C821FB68D3F8EC
:10216000E0329A4202D2F86800F07EF80023184666
:102170001837BD4680BDB0B584B000AF78600B465F
:10218000FB707B68002B02D0FB78002B02D14FF054
:10219000FF3365E0FB7819467868FFF792FDB86079
:1021A000BB68002B02DA6FF0040359E07A68BB6861
:1021B0009B011344083300221A707A68BB689B01A4
:1021C0001344093303221A70FB7819467868FFF725
:1021D000EDFDBB68FB601AE0FB6801337968FA68C3
:1021E00092010A4402F108017A689B011344083302
:1021F0000C461D460FCD0FC40FCD0FC40FCD0FC41D
:1022000095E80F0084E80F00FB680133FB607B68F2
:10221000D3F8C831013BFA689A42DDD37B68D3F822
:10222000C8315A1E7B68C3F8C8217B68D3F8C8310F
:10223000062B11D87B68D3F8C8317A689B01134408
:10224000083300221A707B68D3F8C8317A689B0182
:102250001344093300221A70786800F005F800234F
:1022600018461037BD46B0BDB0B5ADF5905D82B033
:1022700004AF07F5FC73A3F5FA73186007F5FC7358
:10228000A3F5FA731B68002B01D100231FE307F5A8
:10229000FC73A3F5FA731B68D3F8CC32002B09D179
:1022A00007F5FC73A3F5FA731B680022C3F8C82175
:1022B00000230CE307F5FC73A3F5FA731B68D3F84E
:1022C000C83107F58E5202F11402136007F5FC7352
:1022D000A3F5FA731B6803F1080107F5805303F1B6
:1022E00008034FF4E072184604F092FD002307F54E
:1022F0008F5202F114021360002307F58F5202F18E
:1023000010021360A4E007F5FC73A3F5FA731A68D2
:1023100007F58F5303F110031B68134403F5E673AD
:102320001B7807F58E5202F10F02137007F5FC734C
:10233000A3F5FA731B681B7807F58E5202F10F02A2
:1023400012789A4278D007F5FC73A3F5F87207F576
:102350008F5303F114031B681B01134407F58E52BE
:1023600002F10F0212781A7007F5FC73A3F5F872E8
:1023700007F58F5303F114031B681B01134403F18A
:1023800008008B4907F58F5303F110031A681346B1
:102390005B0013445B00CA180346106818609288FB
:1023A0009A8007F5FC73A3F5FA731B681D7807F58F
:1023B000FC73A3F5FA731A6807F5FC73A3F5FA74B6
:1023C0007B4807F58F5303F1100319680B465B0038
:1023D0000B445B00C11801AB0868186089889980BC
:1023E00007F58E5303F10F031B780093D2F80230E8
:1023F0001946D288002362F30F030A462946206853
:1024000000F022FB014607F5FC73A3F5F87207F50F
:102410008F5303F114031B681B0113440433196029
:1024200007F58F5303F114031B68013307F58F522F
:1024300002F11402136000E000BF07F58F5303F1AF
:1024400010031B68013307F58F5202F1100213606D
:1024500007F5FC73A3F5FA731B68D3F8CC3207F5C4
:102460008F5202F1100212689A42FFF44CAF07F14A
:102470001803103B07F58F5202F114021168184639
:10248000FFF761FD07F5FC73A3F5FA731B68D3F83A
:10249000E03207F58F5202F114021268934228BF0E
:1024A000134607F58E5202F110021360002307F560
:1024B0008F5202F10C0213601DE14FF0FF3307F55C
:1024C0008F5202F108021360002307F58F5202F1C8
:1024D0000402136031E007F58F5303F11803A3F5ED
:1024E000F87207F58F5303F104031B689B01134433
:1024F0001A7807F5FC73A3F5F87107F58F5303F10C
:102500000C031B681B010B441B789A420AD107F588
:102510008F5303F104031B6807F58F5202F1080281
:10252000136016E007F58F5303F104031B680133B2
:1025300007F58F5202F10402136007F58F5303F180
:1025400004031A6807F58E5303F114031B689A42BB
:10255000C1D307F58F5303F108031B68002B29DB58
:1025600007F5FC73A3F5FA731A6807F58F5303F1A7
:102570000C031B689B01134403F1080107F58F53FB
:1025800003F11803A3F5F87207F58F5303F108035D
:102590001B689B0113440C461D460FCD0FC40FCD85
:1025A0000FC40FCD0FC495E80F0084E80F007CE046
:1025B0000837002007F5FC73A3F5F87207F58F5371
:1025C00003F10C031B681B011344197807F5FC7316
:1025D000A3F5FA731A6807F58F5303F10C031B6810
:1025E0009B01134408330A461A7007F5FC73A3F5E0
:1025F000FA731A6807F58F5303F10C031B689B01EC
:102600001344093300221A7007F5FC73A3F5FA731B
:102610001A6807F58F5303F10C031B689B011344E1
:1026200003F110014FF000024FF00003C1E9002355
:1026300007F5FC73A3F5F87207F58F5303F10C034C
:102640001B681B01134404331A6807F5FC73A3F5D8
:10265000FA73196807F58F5303F10C031B680133F4
:102660009B010B441A6007F5FC73A3F5FA731A6813
:1026700007F58F5303F10C031B6801339B011344CF
:10268000043300221A7007F5FC73A3F5FA7207F5FC
:102690008F5303F10C031B689B011833126813441A
:1026A00028220021184604F04DFC07F5FC73A3F521
:1026B000F87207F58F5303F10C031B681B011344D9
:1026C00004331A6807F5FC73A3F5FA73196807F564
:1026D0008F5303F10C031B6801339B010B441A60F9
:1026E00007F58F5303F10C031B68013307F58F5275
:1026F00002F10C02136007F58F5303F10C031A6803
:1027000007F58E5303F110031B689A42FFF4D5AE10
:1027100007F58E5303F110031B6807F58F52136002
:1027200020E007F5FC73A3F5FA731A6807F58F53D9
:102730001B689B011344083300221A7007F5FC73D1
:10274000A3F5FA731A6807F58F531B689B011344AE
:10275000093300221A7007F58F531B68013307F500
:102760008F52136007F58F531B68062BD9D907F5D5
:10277000FC73A3F5FA731B6807F58E5202F1100281
:102780001268C3F8C82102F029F802460B4607F583
:10279000FC71A1F5FA710968C1E9B6234F4B1B68BA
:1027A000002B00F08F8007F58E5303F114031A6895
:1027B00007F58E5303F110031B689A4214BF0123DF
:1027C000002307F58E5202F11F02137007F58E5396
:1027D00003F11F031B7883F00103DBB2002B4BD006
:1027E000002307F58E5202F1180213602EE007F560
:1027F000FC73A3F5FA731A6807F58E5303F11803F7
:102800001B689B01134408331A7807F58F5303F1B3
:102810001803A3F5F87107F58E5303F118031B682D
:102820009B010B441B789A4205D0012307F58E5279
:1028300002F11F02137007F58E5303F118031B6892
:10284000013307F58E5202F11802136007F58E531B
:1028500003F118031A6807F58E5303F110031B6880
:102860009A4209D207F58E5303F11F031B7883F0B8
:102870000103DBB2002BBAD107F58E5303F11F031E
:102880001B78002B1ED0154B1C6807F5FC73A3F5B5
:10289000FA731B6803F1080207F5805101F1080182
:1028A00007F5FC73A3F5FA7007F58E5303F11003D7
:1028B0001B680093134607F58E5202F1140212684A
:1028C0000068A04707F58E5303F110031B681846F4
:1028D00007F58F571837BD46B0BD00BF083D002033
:1028E0002DE9B04386B000AFF860C7E90023FB686C
:1028F000002B01D1002341E00023FB75FB68D3E9E5
:10290000B423D7E90001B0EB020861EB0309FB68CF
:10291000D3E9BA23904579EB030307D3F868FFF7AF
:102920005FFBF968D7E90023C1E9B423FB68D3F85A
:10293000C821FB68D3F8F8329A421ED2FB68D3E96B
:10294000B423D7E90001841A61EB0305FB68D3E9DE
:10295000BA014FF000024FF00003820842EA817290
:102960008B08944275EB030307D3F868FFF738FB35
:10297000F968D7E90023C1E9B423FB7D184618376D
:10298000BD46BDE8B08380B586B000AFF860B960E1
:102990007A60FB68002B02D0BB68002B01D10023BA
:1029A00011E0FB68D3F8C8317A68934228BF134618
:1029B0007B61FB6803F108017B699B011A46B868DB
:1029C00004F026FA7B6918461837BD4680BD80B5ED
:1029D00082B000AF78600B46FB707B68002B02D0A2
:1029E000FB78002B01D1002308E0FB7819467868BA
:1029F000FFF767F90346DB43DB0FDBB21846083706
:102A0000BD4680BD80B584B000AF78600B46FB70DA
:102A10007B68002B02D0FB78002B01D100230FE054
:102A2000FB7819467868FFF74CF9F860FB68002BD3
:102A300001DA002304E0FB689B0108337A68134441
:102A400018461037BD4680BD80B584B000AFF86031
:102A50000846394681E80C000346FB72FB68002BF0
:102A600002D16FF000433EE0FB6893F8E432032BA1
:102A700037D801A252F823F0892A0008A12A0008B9
:102A8000BB2A0008D32A0008FA7A3B7E9A4203D96F
:102A9000FA7A3B7ED31A26E03A7EFB7AD31A22E0FA
:102AA00007F11C030CCB394603C9FFF7CBF90346EA
:102AB0001846FFF7F6F9034615E0FA7A3B7E9A428C
:102AC00003D9FA7A3B7ED31A0DE03A7EFB7AD31A09
:102AD00009E03A7EFB7A1146184600F008F80346F2
:102AE00001E06FF0004318461037BD4680BD80B44A
:102AF00083B000AF03460A46FB711346BB71FA79F7
:102B0000BB799A4203D9FA79BB79D31A02E0BA7930
:102B1000FB79D31A18460C37BD465DF8047B704725
:102B200080B483B000AF78603960044A3B681360BA
:102B300000BF0C37BD465DF8047B7047083D0020A0
:102B400080B485B000AF78600B467B800023FB60CB
:102B500010E07968FA6813469B001344DB000B44CD
:102B600008331B887A889A4201D1FB680AE0FB6827
:102B70000133FB607B68D3F8A830FA689A42E8D347
:102B80004FF0FF3318461437BD465DF8047B70479D
:102B900080B487B000AFF860C7E900230B467B81A3
:102BA00000237B611AE0FA687B6954335B001344AD
:102BB0009B887A899A420ED1FA687B691733DB00C9
:102BC0001344D3E90023D7E90001904271EB0303DA
:102BD00001D2012309E07B6901337B61FB68D3F8F3
:102BE000D8307A699A42DED3002318461C37BD4696
:102BF0005DF8047B704780B483B000AF78607B6879
:102C0000D3F8A830032B02D94FF0FF3302E07B68E2
:102C1000D3F8A83018460C37BD465DF8047B7047E2
:102C20002DE9B04F96B000AF786339637B6B93F8B2
:102C30002330002B03D07B6B93F8223083E07B6B37
:102C4000DB7F7B657B6B93F820303B657B6B93F878
:102C50002130FB647A6D3B6B9A4251D23A6B7B6DAB
:102C6000D31A7B643A6D7B6C13443B643B6B002B43
:102C700017D03B6C00229A4693464FEA1A43FB62F8
:102C80004FEA0A43BB623B6B00223B627A62D7E9A0
:102C90000823D7E90A0103F095FC02460B461346C8
:102CA00000E00023FB637B6B9B68FA6B9A4201DABE
:102CB000022348E03B6B002B17D03B6D0022984667
:102CC00091464FEA1843FB614FEA0843BB613B6BF7
:102CD00000223B617A61D7E90423D7E9060103F0BA
:102CE00071FC02460B46134600E00023BB637B6B7E
:102CF0009B68BA6B9A4201DB012324E0002322E0A7
:102D00003B6B002B15D03B6D00221C461546230C57
:102D1000FB602304BB603B6B00223B607A60D7E919
:102D20000023D7E9020103F04DFC02460B4613468F
:102D300000E00023BB647B6B9B68BA6C9A4201DBAA
:102D4000012300E0022318465837BD46BDE8B08F86
:102D500080B584B000AFF860B9601346FB71BB6802
:102D6000FA7983F82220BB68012283F82320074BDD
:102D70001B68002B05D0054B1B68FA79B968F86809
:102D8000984700BF1037BD4680BD00BF143D0020EE
:102D9000B0B485B000AF78600023FB600023BB6057
:102DA00033E07968BB685A1C13469B001344DB0070
:102DB0000B4403331B7883F00103DBB2002B21D0DB
:102DC000FA68BB689A421AD07968FA6813469B0081
:102DD0001344DB000B4403F108007968BA6813461A
:102DE0009B001344DB000B44083304461D460FCD03
:102DF0000FC40FCD0FC495E8030084E80300FB68FF
:102E00000133FB60BB680133BB607B68D3F8A8303B
:102E1000BA689A42C5D37B68FA68C3F8A82000BF95
:102E20001437BD46B0BC704780B586B000AF78603F
:102E3000396004233B727B681B787B723B681B887C
:102E40007B813B689B783B733B685B68C7F80D30C0
:102E50003B689B68C7F8113007F108030D2219463B
:102E6000042001F0D7FF034618461837BD4680BD41
:102E700080B586B000AF7860084611461A46034612
:102E8000FB700B463B801346BB7005233B737B688E
:102E90001B787B733B88FB81BB783B7401F09EFC05
:102EA00002460B461346C7F8113007F10C02F878BA
:102EB0000923052101F024FF034618461837BD46B3
:102EC00080BDB0B58AB000AFF8600B467A60FB7287
:102ED000FB68002B02D0FB7A002B02D14FF0FF33AE
:102EE00030E0F8220021F86804F02CF8FB68FA7A48
:102EF0001A70FB680122A3F8DC207B68002B0BD042
:102F0000FB687A6803F1E00415460FCD0FC495E81D
:102F1000030084E8030014E00C4B07F110041D4685
:102F20000FCD0FC495E8030084E80300FB6803F1AC
:102F3000E00407F110050FCD0FC495E8030084E805
:102F40000300002318462837BD46B0BD789200081C
:102F5000B0B58AB000AFF8607A603B600B46FB7298
:102F6000FB68002B02D0BB6B002B02D14FF0FF336C
:102F70006BE0F868FFF73FFE78627B6A002B02DAAD
:102F80006FF0030361E001F029FCC7E906017A6AEA
:102F900013469B001344DB000833FA6813447B613B
:102FA00028220021786903F0CDFFFB68B3F8DC30FC
:102FB0005A1C91B2FA68A2F8DC107A6913807B6916
:102FC000FA7A9A70FB681A787B69DA707B697A689A
:102FD0005A607B693A689A60FB68D3E93801D7E99F
:102FE0000623841841EB03057B69C3E904457B692B
:102FF000002283F822207B69002283F823207B694A
:10300000183307220021184603F09CFFFB6893F851
:10301000F030002B09D07B6901221A767B690122EE
:10302000DA777B69012283F82020FB68D3F8A83087
:103030005A1CFB68C3F8A8207969F868FFF7F4FE0A
:103040007B691A88BB6B1A80002318462837BD4657
:10305000B0BD80B584B000AF78600B467B8013466E
:103060007B707B68002B02D07B88002B02D14FF055
:10307000FF3324E07B8819467868FFF761FDF8602C
:10308000FB68002B02DA6FF0040318E0FA681346BD
:103090009B001344DB0008337A681344BB60BB68B1
:1030A00093F82330002B02D06FF0030307E0BB68D6
:1030B000D9787B787A887868FFF7DAFE0346184675
:1030C0001037BD4680BD2DE9F04389B000AF786070
:1030D0000B467B807B68002B02D07B88002B02D1C3
:1030E0004FF0FF339FE001F079FBC7E904010023B3
:1030F000FB611DE07A68FB6954335B0013449B88D5
:103100007A889A4211D17B68D3E93A01D7E904233E
:1031100010EB020841EB03097A68FB691733DB0007
:103120001344C3E9008900237DE0FB690133FB619F
:103130007B68D3F8D830FA699A42DBD37B68D3F83E
:10314000D830032B30D90023BB611FE0BB690133AA
:103150007A6854335B00134499887A68BB695433A6
:103160005B0013440A469A80BB6901337A681733BF
:10317000DB001344D3E900237868B9691731C9002B
:103180000144C1E90023BB690133BB617B68D3F80B
:10319000D830013BBA699A42D8D37B68D3F8D8308B
:1031A0005A1E7B68C3F8D8207B68D3F8D8307A6879
:1031B00054335B0013447A889A807B68D3E93A01E0
:1031C0007B68D3F8D860D7E90423841841EB030562
:1031D0007A6806F11703DB001344C3E900457B68F6
:1031E000D3F8D8305A1C7B68C3F8D8207B8819469E
:1031F0007868FFF7A5FCF860FB68002B0CDBFA6829
:1032000013469B001344DB0008337A6813440422FE
:1032100019467868FFF79CFD7A880323FF217868B8
:10322000FFF726FE002318462437BD46BDE8F0838D
:10323000F0B58BB000AF7860084611461A460346D9
:10324000FB700B463B801346BB707B68002B05D0A0
:10325000FB78002B02D03B88002B02D14FF0FF33CC
:10326000C4E0BB78032B51D101F0B8FAC7E90401DF
:103270007B68D3F8D830032B21D87B68D3F8D830BB
:103280007A6854335B0013443A889A807B68D3E9A8
:103290003A017B68D3F8D860D7E90423841841EB5E
:1032A00003057A6806F11703DB001344C3E9004500
:1032B0007B68D3F8D8305A1C7B68C3F8D8203B8889
:1032C00019467868FFF73CFCF860FB68002B1BDBB5
:1032D0007968FB685A1C13469B001344DB000B44BF
:1032E00003331B7883F00103DBB2002B0CD0FA68A8
:1032F00013469B001344DB0008337A68134404220E
:1033000019467868FFF724FD00236FE03B881946D3
:103310007868FFF715FC78627B6A002B02DA6FF0A1
:10332000040363E07A6A13469B001344DB0008330E
:103330007A6813443B623B6ADA787B681B789A426E
:1033400002D04FF0FF3351E03B6A93F82330002B5B
:1033500001D000234AE0FA78264BA3FB0213D11ACE
:1033600049080B4499080B46DB005B1AD31ADBB201
:10337000FB613A6AFB69134418331B78002B01D0B8
:10338000002333E03A6AFB6913441833BA781A70A1
:103390003B6ADB7F0133DAB23B6ADA77BB78012B19
:1033A00002D0022B09D011E03B6A93F820300133A0
:1033B000DAB23B6A83F8202008E03B6A93F82130B8
:1033C0000133DAB23B6A83F8212000BF0721386A53
:1033D000FFF726FC0346FB76FB7E002B05D0FB7E29
:1033E0001A46396A7868FFF7B3FC002318462C3771
:1033F000BD46F0BD25499224B0B588B000AF7860D5
:10340000084611461A460346FB700B463B8013469E
:10341000BB707B68002B05D0FB78002B02D03B886B
:10342000002B02D14FF0FF3385E07B681B78FA78E0
:103430009A4201D100237EE001F0D0F9C7E90401EE
:103440003988D7E904237868FFF7A2FB0346002BED
:1034500008D03A88F97803237868FFF709FD6FF000
:10346000070368E03B8819467868FFF769FBF86056
:10347000FB68002B01DB00235DE07868FFF7BBFBF6
:10348000F860FB68002B08DA3A88F978022378683C
:10349000FFF7EEFC6FF003034DE0FA6813469B0064
:1034A0001344DB0008337A681344BB6028220021F0
:1034B000B86803F047FDBB683A881A80BB68BA78E1
:1034C0009A70BB68FA78DA70BB683A6B5A60BB686E
:1034D0007A6B9A607B68D3E93801D7E904238418B2
:1034E00041EB0305BB68C3E90445BB68002283F8D0
:1034F0002220BB68002283F823207B68D3F8A83001
:103500005A1C7B68C3F8A8200023FB770C4B1B6870
:10351000002B07D00A4B1B68B968786898470346A8
:10352000FB7701E00123FB77FB7F3A88F978786825
:10353000FFF79EFC002318462037BD46B0BD00BFF4
:10354000103D002080B584B000AF78600B467B80D2
:103550007B68002B02D07B88002B01D1002314E074
:103560007B8819467868FFF7EBFAF860FB68002B58
:1035700001DA002309E07968FB685A1C13469B00B6
:103580001344DB000B4402331B7818461037BD464A
:1035900080BD80B58AB000AFF860C7E90023FB6842
:1035A000002B01D1002397E000237B6200233B62C4
:1035B00044E03A6A13469B001344DB000833FA6880
:1035C00013443B613B6993F82330002B32D13B69B4
:1035D0001988D7E90023F868FFF7DAFA0346002BC9
:1035E00008D004223969F868FFF7B2FB7B6A01331F
:1035F0007B6220E03B69D3E90423D7E900019042D4
:1036000071EB030317D33B69DB7F19463869FFF77A
:1036100007FB0346FB77FB7F002B01D10323FB77DE
:10362000FB7F1A463969F868FFF792FB7B6A013322
:103630007B6200E000BF3B6A01333B62FB68D3F86A
:10364000A8303A6A9A42B4D30023BB6100237B615D
:1036500031E0FA687B691733DB001344D3E90023B8
:10366000D7E90001904271EB030321D2BA697B696B
:103670009A421AD0FA687B6954335B0013449988E4
:10368000FA68BB6954335B0013440A469A80FA68AF
:103690007B691733DB001344D3E90023F868B96969
:1036A0001731C9000144C1E90023BB690133BB6183
:1036B0007B6901337B61FB68D3F8D8307A699A4221
:1036C000C7D3FB68BA69C3F8D8207B6A002B02D045
:1036D000F868FFF75DFB7B6A18462837BD4680BD5A
:1036E00080B483B000AF78603960044A3B681360EF
:1036F00000BF0C37BD465DF8047B7047103D0020CD
:1037000080B483B000AF78603960044A3B681360CE
:1037100000BF0C37BD465DF8047B7047143D0020A8
:1037200080B483B000AF03460A46FB801346BB80DB
:10373000FA88BB8813409BB2BA889A420CBF012317
:103740000023DBB218460C37BD465DF8047B70479A
:1037500080B584B000AF78607B681B7ABB73BB7B9D
:10376000FB73BB7B062B72D801A252F823F000BF7B
:103770004F3800088D370008A3370008C937000804
:10378000EF370008153800084F3800087B68D3F879
:1037900040227B68D3F870339A4251D30223FB73E3
:1037A0004EE07B68D3F84032002B02D10423FB7338
:1037B00048E07B68D3F840227B68D3F870339A42A4
:1037C00040D20323FB733DE07B68D3F84032002BEB
:1037D00002D10423FB7337E07B68D3F840227B6877
:1037E000D3F870339A422FD30223FB732CE07B680B
:1037F000D3F840227B68D3F870339A4202D3022375
:10380000FB7323E07B68D3F84032002B1ED00323E8
:10381000FB731BE07B68D3F840227B68D3F87033DE
:103820009A4202D30223FB7311E07B68D3F8403243
:10383000002B02D00323FB7309E00423FB7306E093
:1038400000BF04E000BF02E000BF00E000BFFA7B61
:10385000BB7B9A420ED07B68FA7B1A727B68D3F8E6
:10386000B037002B06D07B68D3F8B037BA7B11464F
:103870007868984700BF1037BD4680BDB0B59EB090
:1038800002AFF860C7E900230023FB667FE0402316
:103890003B6107F1100307F1140207F1560107F12C
:1038A000570001F0C9FA034687F86B3097F96B307F
:1038B000002B71D197F85630013B042B63D801A23D
:1038C00052F823F0D9380008F93800088739000881
:1038D000333900086739000807F11403BB65BB6D75
:1038E0005978BB6D9878D7E90023CDE900230246CB
:1038F0002C4802F0D5F847E007F11403FB65FB689C
:1039000003F17800FB6D5978FB6DD3F80220144663
:103910009A79DB791B021A43002362F30F032246D4
:10392000FEF7F2FBFB6D5B7819461E4802F019F8B2
:103930002AE007F114033B66FB6803F55E703B6EFB
:1039400059783B6E5B889CB23B6E1D793B6ED3F819
:1039500005303A6ED2F80920019200932B46224698
:10396000FFF74AFD10E007F114037B66FB6803F5DF
:103970005E707B6E59787B6E5B889AB27B6E1B792A
:10398000FFF756FC00E000BFFB6E0133FB66FB6EE9
:103990000F2B7FF77CAF00E000BF00BF7037BD4644
:1039A000B0BD00BF183D00202DE9B04F8AB000AF78
:1039B000F860C7E900230B46FB72FA7AFB68D3F87C
:1039C00070379A4258D2FA7A13465B0013445B016F
:1039D00003F58E63FA6813447B627B6A1B7C012BC0
:1039E0004CD17B6A02221A74FB68FA7A83F8742736
:1039F00000F0F4FEC7E906017B6A9B68002B05D046
:103A00007B6A9B687A6AD2681046984700F0E6FEA7
:103A1000D7E90623B0EB020A61EB030BC7E904AB5D
:103A20007B6AD3E90C01D7E9042310EB020841EBD0
:103A300003097B6AC3E90C897B6A9B6A5A1C7B6A0F
:103A40009A627B6A00221A74FB68FF2283F874274B
:103A50007B6AD3E90623134311D07B6AD3E90601BD
:103A6000D7E90023841841EB03057B6AC3E90845C5
:103A70007B6A01221A7402E000BF00E000BF283711
:103A8000BD46BDE8B08F82B080B588B002AFF860A7
:103A90007A607B620B46FB72FB68002B02D0FB7ADC
:103AA000002B02D14FF0FF3373E04FF4F762002197
:103AB000F86803F047FAFB68FA7A1A70FB687A68CC
:103AC0005A60FB6800221A72FB68FF2283F8742791
:103AD000FB6803F5F06319464FF47A724FF0000368
:103AE000C1E900232E4AFB681360FB6803F17800EC
:103AF000F97A0023009307F124030CCBFEF79EFA1A
:103B00000346FB7597F91730002B02D097F9173051
:103B10003FE0FB6803F55E73F97A00221846FFF771
:103B2000D0F90346FB7597F91730002B02D097F9AF
:103B300017302EE0FB7A002219461A4801F0C8FE21
:103B40000346FB7597F91730002B02D097F9173011
:103B50001FE0154B154A1649124802F05BF9FB6845
:103B600003F55E7313491846FFF7BAFDFB6803F5CA
:103B70005E7311491846FFF7C3FDFB681033282216
:103B80000021184603F0DEF9FB68FA7A83F830204A
:103B9000002318461837BD46BDE8804002B0704784
:103BA000585D0020183D0020A34500088D45000801
:103BB0002D450008F14500084146000880B582B057
:103BC00000AF78607B68002B02D14FF0FF3313E029
:103BD0007B681B7A002B02D06FF003030CE07B683C
:103BE00001221A7200F0FAFD02460B46796801F5CF
:103BF000F06141E90223002318460837BD4680BD25
:103C000080B483B000AF78607B68002B02D14FF0A6
:103C1000FF3303E07B6806221A72002318460C3734
:103C2000BD465DF8047B704780B588B000AFF86092
:103C3000C7E90023FB68002B02D14FF0FF33A3E05C
:103C4000FB681B7A002B03D0FB681B7A062B01D183
:103C5000002399E04E4AFB681360FB68D3F888376D
:103C60005A1CFB68C3F88827D7E90023F868FFF7D8
:103C700005FED7E90023474801F086FFF861FB699C
:103C8000002B06D0FB68D3F890375A1CFB68C3F8AA
:103C90009027FB6803F17801D7E900230846FEF777
:103CA0001FFE0346FB76FB7E002B06D0FB68D3F895
:103CB00090375A1CFB68C3F89027FB681878FB689C
:103CC00003F18001FB68D3F84022FB683833FDF72D
:103CD0002DFD0346BB7697F91A30002B0AD1FB68FD
:103CE00003F11000FB6803F13801FB6860331A46EA
:103CF000FDF73AFEFB6803F55E71D7E9002308463D
:103D0000FFF747FC78617B69002B06D0FB68D3F88E
:103D100094375A1CFB68C3F89427F86800F0EBFA54
:103D20000346FB74FA7CFB68D3F870379A4205D2DD
:103D3000F97CD7E90023F868FFF736FEF968D7E980
:103D40000023C1E90A23FB681A78FB68103319467F
:103D50001046FDF7FBFB0346BB7697F91A30002BA4
:103D600006D1FB68D3F88C375A1CFB68C3F88C2744
:103D7000F868FFF7EDFCFB6803F5F0631946D7E937
:103D8000002341E90223002318462037BD4680BDA9
:103D9000585D0020183D002080B487B000AFF86067
:103DA000B9607A603B60FB68002B02D07B68002B17
:103DB00002D14FF0FF334EE0FB68D3F87037072B8A
:103DC00002D96FF0010346E0FB68D3F87027134671
:103DD0005B0013445B0103F58E63FA6813447B6157
:103DE000FB68D3F87037DAB27B691A707B69BA68FE
:103DF0005A607B697A689A607B693A68DA607B69A5
:103E000000221A747B6997F820205A747969D7E9DF
:103E10000A23C1E9062379694FF000024FF000033D
:103E2000C1E908237B6900229A6279694FF0000298
:103E30004FF00003C1E90C233B6B002B03D07B69DF
:103E40001A783B6B1A70FB68D3F870375A1CFB6802
:103E5000C3F87027002318461C37BD465DF8047B65
:103E6000704780B483B000AF78600B46FB707B680E
:103E7000002B05D0FA787B68D3F870379A4202D3CA
:103E80004FF0FF330BE0FA78796813465B00134478
:103E90005B010B4403F5906301221A70002318465E
:103EA0000C37BD465DF8047B704780B483B000AF2B
:103EB00078600B46FB707B68002B05D0FA787B6836
:103EC000D3F870379A4202D34FF0FF330BE0FA7801
:103ED000796813465B0013445B010B4403F5906360
:103EE00003221A70002318460C37BD465DF8047B88
:103EF000704780B584B000AFF860B9607A603B600D
:103F0000FB68002B02D14FF0FF3313E0FB68BA6867
:103F10001A61FB687A685A61FB683A689A61FB68C3
:103F2000D3F89C37002B04D0FB68D3F89C37F86893
:103F30009847002318461037BD4680BD80B483B033
:103F400000AF78600B46FB707B68002B02D0FB78DB
:103F5000052B01D9002304E0FA787B68183253F866
:103F6000223018460C37BD465DF8047B70472DE9BA
:103F7000B0438EB000AFF860C7E90023FB68002BA8
:103F800002D14FF0FF33A8E05AA3D3E90023C7E9D9
:103F90000C23002387F82F300023BB625FE0BA6A4E
:103FA00013465B0013445B0103F58E63FA68134408
:103FB0003B623B6A93F8383083F00103DBB2002B9D
:103FC00049D1012387F82F303B6AD3E912231046E9
:103FD0001946D7E90023841841EB0305C7E90645D4
:103FE0003B6AD3E9102310461946D7E90623B0EB04
:103FF000020861EB0309C7E90489D7E9040102F06B
:10400000A3FA06EE900A9FED387AC6EE877A9FED06
:10401000377A67EE877AFDEEE77A17EE902A3B6AE9
:104020001A65D7E9042332498A4273F10003B4BF09
:1040300001230023DAB23B6A83F85420D7E9040154
:10404000D7E90C23904271EB030305DAD7E9042387
:10405000C7E90C2300E000BFBB6A0133BB62FB6809
:10406000D3F87037BA6A9A4299D397F82F30002B59
:104070002ED0D7E90C0102F067FA06EE900A9FED08
:104080001A7AC6EE877AC7ED097AD7ED097AF5EE86
:10409000C07AF1EE10FA02D54FF000037B62D7ED43
:1040A000097AB7EE007AF4EEC77AF1EE10FA02DD83
:1040B0004FF07E537B62D7ED097A9FED0C7A67EE65
:1040C000877AFDEEE77A17EE902AFB685A6203E0E2
:1040D000FB684FF480325A62002318463837BD46D9
:1040E000BDE8B083AFF3008020BCBE4C0000804729
:1040F0008096980000E1F5050000000080B487B0CC
:1041000000AFF860C7E900230B46FB72FB68002B89
:1041100005D0FA7AFB68D3F870379A4202D34FF091
:10412000FF331FE0FA7A13465B0013445B0103F58B
:104130008E63FA6813447B617B69012283F838201F
:104140007969D7E90023C1E910237969D7E9082300
:10415000C1E912237B6900221A657B69002283F87A
:104160005420002318461C37BD465DF8047B704779
:1041700080B485B000AF78600B46FB707B68002B85
:1041800005D0FA787B68D3F870379A4202D34FF0A3
:10419000FF3323E0FA7813465B0013445B0103F519
:1041A0008E637A681344FB60FB68002283F8382032
:1041B000F9684FF000024FF00003C1E91023F968DD
:1041C0004FF000024FF00003C1E91223FB68002208
:1041D0001A65FB68002283F8542000231846143720
:1041E000BD465DF8047B704780B483B000AF786053
:1041F0000B467B807B68002B02D14FF0FF3304E03D
:104200007B687A88A3F89827002318460C37BD46A8
:104210005DF8047B704780B483B000AF78607B6842
:10422000002B01D1002302E07B68B3F898371846D1
:104230000C37BD465DF8047B704780B483B000AF97
:1042400078600B46FB7013463B807B68002B05D0E3
:10425000FA787B68D3F870379A4202D34FF0FF3375
:104260000BE0FA78796813465B0013445B010B445A
:1042700003F599633A881A80002318460C37BD4627
:104280005DF8047B704780B586B002AFF860B96016
:104290007A60FB68002B02D14FF0FF330BE0FB6824
:1042A00003F55E707B6800934AF68533BA68002197
:1042B000FEF74EFE034618461037BD4680BD80B55A
:1042C00086B002AFF860B9607A60FB68002B02D15B
:1042D0004FF0FF330BE0FB6803F55E707B680093E3
:1042E0004FF40043BA680121FEF732FE0346184638
:1042F0001037BD4680BD80B58AB000AF78607B685E
:10430000002B04D07B68D3F87037002B01D1FF233A
:104310008DE000F063FAC7E90401FF2387F8273036
:10432000FF2387F82630002387F8253000233B62DF
:1043300075E03A6A13465B0013445B0103F58E6334
:104340007A681344FB60FB681B7C012B5FD1FB6820
:10435000D3E90623134308D0FB68D3E90823D7E940
:104360000401904271EB030353D3FB68B3F8583058
:10437000002B0FD07B68B3F89827FB68B3F8583050
:1043800019461046FFF7CCF9034683F00103DBB270
:10439000002B40D1FB6893F83830002B06D0FB6827
:1043A00093F85430002B01D0012300E00023FB726E
:1043B000FB7A03F00103FB720023FB77FB7A002BEF
:1043C00009D097F8253083F00103DBB2002B02D02F
:1043D0000123FB770CE0FA7A97F825309A4207D14F
:1043E000FB685B7C97F826209A4201D90123FB7772
:1043F000FB7F002B10D0FB685B7C87F82630FB68C6
:104400001B7887F82730FB7A87F8253004E000BF57
:1044100002E000BF00E000BF3B6A01333B627B6803
:10442000D3F870373A6A9A4283D397F82730184600
:104430002837BD4680BD80B483B000AF7860396056
:10444000012318460C37BD465DF8047B704780B4E5
:1044500083B000AF786039607B68002B02D03B6886
:10446000002B02D14FF0FF331FE07B681A783B68C6
:104470001A707B681A7A3B685A707B68D3F84022BE
:104480003B685A607B681A6E3B689A607B685A6E1C
:104490003B68DA607B68D3F820243B681A617B684C
:1044A000D3F888273B685A61002318460C37BD466D
:1044B0005DF8047B7047B0B584B002AF78607B686C
:1044C000002B28D07B681B781D467B685B68002B1F
:1044D00002D07B685C6800E0114C7B681B7A184650
:1044E00001F0DCF801467B68D3F840327A68D2F8F4
:1044F0008827019200930B4622462946094800F07E
:10450000F9F97B68196E7B685A6E7B689B6E06486A
:1045100000F0F0F900E000BF0837BD46B0BD00BFB5
:104520009092000894920008C492000880B584B06C
:1045300000AF0346FB71144B1B68002B1FD00023F8
:104540003B8100237B810023BB810F4B1B6803F160
:104550007800F97907F108030CCBFDF7D5FD0A4B7C
:104560001B68D3F8A437002B0AD0074B1B68D3F87D
:10457000A437054A1268F9791046984700E000BF51
:104580001037BD4680BD00BF585D002080B483B0A9
:1045900000AF0346FB7100BF0C37BD465DF8047BDE
:1045A000704780B582B000AF0346FB710F4B1B68AC
:1045B000002B17D00D4B1B687833FA79114618463B
:1045C000FDF7D9FD094B1B68D3F8A037002B0AD0A3
:1045D000064B1B68D3F8A037044A1268F9791046D5
:1045E000984700E000BF0837BD4680BD585D0020F9
:1045F00080B582B000AF78603960104B1B68002B2B
:1046000001D1012315E00D4B1B68D3F8A837002B0F
:1046100008D00A4B1B68D3F8A837084A12683968D3
:1046200010469847054B1B6839681846FFF703FF8B
:10463000034618460837BD4680BD00BF585D0020C0
:1046400080B584B000AFF860B9601346FB710C4BC5
:104650001B68002B0FD00A4B1B68D3F8AC37002B1C
:104660000AD0074B1B68D3F8AC37054A1268B96803
:104670001046984700E000BF1037BD4680BD00BF20
:10468000585D002080B582B000AF1C4B1B78002B1A
:1046900001D000232EE000F0C1FD0346FB7197F925
:1046A0000730002B02D097F9073023E01448FCF7BD
:1046B00015FF0346FB7197F90730002B02D097F9DD
:1046C000073017E00D4B01221A700E490E4800F01A
:1046D00011F900F0E5FD034619460C4800F00AF90F
:1046E00007210B4800F006F94FF48071094800F0EB
:1046F00001F9002318460837BD4680BD888D00208B
:10470000605D0020F0920008F89200081093000805
:10471000209300083493000880B400AF024B184681
:10472000BD465DF8047B7047605D002080B400AF3B
:10473000BFF35F8F00BFBD465DF8047B704780B458
:1047400000AFBFF34F8F00BFBD465DF8047B7047DD
:1047500080B485B000AF78607B6853E8003FFB60B1
:10476000FB6818461437BD465DF8047B704780B47B
:1047700085B000AF786039603A68796842E8001324
:10478000FB60FB6818461437BD465DF8047B704734
:1047900080B500AF0D4B1B680C4A43F0010313605A
:1047A000FFF7CDFF4FF0804300221A60084BA9228B
:1047B0001A60084B4FF0FF321A60074B00221A6054
:1047C0004FF0804301221A6000BF80BD58100240A4
:1047D000280000402C0000402400004080B400AFBE
:1047E000064B1B6800221846114602460B4610462F
:1047F0001946BD465DF8047B704700BF24000040A9
:1048000080B485B000AF7860084B1B68FB6000BFC8
:10481000064B1A68FB68D31A7A689A42F8D800BF28
:1048200000BF1437BD465DF8047B7047240000408C
:1048300080B500AF1D4B1B681C4A43F00103136099
:104840001B4B1B681A4A43F400331360FFF777FFD2
:104850004FF090431B684FF0904223F0F003136039
:104860004FF090431B684FF0904243F0A003136059
:10487000104B1B680F4A23F47F4313600D4B1B68DA
:104880000C4A43F4EE4313600B4B00221A600B4BAF
:1048900040F2C3521A60084B0C221A60064B1B6888
:1048A000054A43F00103136000BF80BD4C10024075
:1048B0005810024020000048004400400C440040D2
:1048C00080B483B000AF0346FB7100BF074B1B6889
:1048D00003F08003002BF9D0054AFB79136000BF79
:1048E0000C37BD465DF8047B704700BF1C44004098
:1048F000284400400FB480B5C4B000AF07F58E72F5
:1049000007F58873A3F586731A6007F58873A3F516
:10491000867307F108001B68D7F818214FF48071DF
:1049200002F0CCFDC7F808010023C7F80C311CE0E9
:1049300007F58873A3F58472D7F80C3113441B78FC
:104940000A2B02D10D20FFF7BBFF07F58873A3F5F3
:104950008472D7F80C3113441B781846FFF7B0FF68
:10496000D7F80C310133C7F80C31D7F80C21D7F840
:1049700008319A42DCDB00BF00BF07F58877BD46EF
:10498000BDE8804004B0704780B500AF1C4B1B6889
:104990001B4A43F000731360FFF7D1FE194B1B68ED
:1049A000184A23F00203136000BF174B1B6803F083
:1049B0000203002BF9D1134B1B68124A43F0010389
:1049C000136000BF104B1B6803F00103002BF9D0EC
:1049D0000E4B0F4A1A600F4B02221A60094B1B68DC
:1049E000084A23F00103136000BF074B1B6803F064
:1049F0000103002BF9D10848FFF77CFF00BF80BD01
:104A00005810024000640040046400401C640040F0
:104A100009001C00146400404893000880B483B06F
:104A200000AF104B1B687B607B6803F08063002B3A
:104A300001D000230FE07B6803F00063002B01D05E
:104A4000012308E07B6803F08053002B01D0022390
:104A500001E04FF0FF3318460C37BD465DF8047B8C
:104A6000704700BF0864004080B58CB000AFF860AC
:104A7000B9601346FB71FFF7D1FF78617B69002BAA
:104A800002DA6FF001038DE0FB79082B01D90823CE
:104A9000FB710023FB620023BB62FB79002B05D076
:104AA000BB681B781A46FB6A1343FB62FB79012B38
:104AB00006D9BB6801331B781B02FA6A1343FB62F9
:104AC000FB79022B06D9BB6802331B781B04FA6AF8
:104AD0001343FB62FB79032B06D9BB6803331B78B6
:104AE0001B06FA6A1343FB62FB79042B06D9BB68E9
:104AF00004331B781A46BB6A1343BB62FB79052B50
:104B000006D9BB6805331B781B02BA6A1343BB6224
:104B1000FB79062B06D9BB6806331B781B04BA6ADF
:104B20001343BB62FB79072B06D9BB6807331B789D
:104B30001B06BA6A1343BB627B69002B03D07B69F7
:104B4000012B09D011E0194B7B62194B3B62194BC9
:104B5000FB61194BBB6111E0184B7B62184B3B6248
:104B6000184BFB61184BBB6108E0184B7B62184B7C
:104B70003B62184BFB61184BBB6100BFFB685A05D9
:104B80007B6A1A60FA793B6A1A60FB69FA6A1A60F2
:104B9000BB69BA6A1A607B6A1B6843F001027B6AD0
:104BA0001A60002318463037BD4680BD806500403E
:104BB00084650040886500408C6500409065004039
:104BC00094650040986500409C650040A0650040E9
:104BD000A4650040A8650040AC65004080B48BB07F
:104BE00000AFF860B9607A60404B1B687B627B6AFB
:104BF00003F003033B623B6A002B02D16FF0040316
:104C00006EE03B4B1B68FB61FB695A0DFB681A6049
:104C1000384B1B68BB61BB69DBB203F00F03DAB230
:104C20007B681A707B681B78082B02D97B68082286
:104C30001A70314B1B687B61304B1B683B617B6892
:104C40001B78002B03D07B69DAB2BB681A707B68D3
:104C50001B78012B05D97B691A0ABB680133D2B2D4
:104C60001A707B681B78022B05D97B691A0CBB680C
:104C70000233D2B21A707B681B78032B05D97B698B
:104C80001A0EBB680333D2B21A707B681B78042BF0
:104C900004D9BB6804333A69D2B21A707B681B78B6
:104CA000052B05D93B691A0ABB680533D2B21A70C5
:104CB0007B681B78062B05D93B691A0CBB68063349
:104CC000D2B21A707B681B78072B05D93B691A0E84
:104CD000BB680733D2B21A70044B20221A6000233B
:104CE00018462C37BD465DF8047B70470C640040C5
:104CF000B0650040B4650040B8650040BC65004048
:104D000080B590B002AFBA607B600346FB730B4680
:104D1000BB737B68402B02D94FF0FF3371E0BB7B44
:104D20001B023A4A12781343FB62BB68BB62B97B31
:104D3000364B1B781846FA7BFB6A01937B6800931D
:104D4000134602463248FFF7D5FD7B68082B08D88A
:104D50007B68DBB21A46B96AF86AFFF785FE03463C
:104D60004FE000237B63002387F8333044E07A6808
:104D70007B6BD31A7B627B6A072B28BF07233B62BE
:104D80007A6B3B6A13447A689A428CBF01230023F2
:104D9000FB77FB7F002B02D06FF07F0200E0002248
:104DA00097F9333013435BB2DBB23B75BA6A7B6B66
:104DB000D11807F1140301333A6A184602F028F8B3
:104DC0003B6ADBB20133DAB207F114031946F86A21
:104DD000FFF74AFE0346BB7797F91E30002B02D03F
:104DE00097F91E300DE07A6B3B6A13447B6397F8AA
:104DF0003330013387F833307A6B7B689A42B6D30D
:104E0000002318463837BD4680BD00BF988D00206E
:104E10006893000880B584B000AF0346B9607A603B
:104E2000FB73F97B7B68BA68FF20FFF769FF0346D5
:104E300018461037BD4680BD80B590B002AFF8600F
:104E4000B9607A603B6007F1170207F1180107F1BA
:104E500020031846FFF7C2FE034687F8363097F95D
:104E60003630002B02D097F93630EBE03B6A1B0A54
:104E7000DBB203F0070387F835303B6A87F834303C
:104E800097F8351097F83420FB7D18463B6A00935D
:104E900003466E48FFF72EFD002387F83730FB7D71
:104EA000012B40F2A38097F83530022B04D097F8FD
:104EB0003530042B40F09A803B7E87F8333097F8EA
:104EC000333003F07F0387F8323097F93330DBB2A9
:104ED000DB0987F8313097F832300F2B00F28680EB
:104EE000012387F8373097F83230002B14D1584B14
:104EF000012283F84720564A97F8343082F844302C
:104F0000534A97F8353082F84530514B00221A64E5
:104F10004F4B002283F846204D4B93F84730002B2F
:104F200064D04B4B93F8443097F834209A425DD1CB
:104F3000474B93F8453097F835209A4256D1444B69
:104F400093F8463097F832209A424FD1FB7D013BCF
:104F5000FB623F4B1A6CFB6A1344402B10D83C4B4E
:104F60001B6C3B4A981807F118030133FA6A19467B
:104F700001F04EFF364B1A6CFB6A1344344A13643B
:104F8000334B93F846300133DAB2314B83F8462085
:104F900097F8313083F00103DBB2002B23D02C4B88
:104FA00093F84420FB681A70294B93F84520BB689E
:104FB0001A70274B1A6C3B681B68934228BF134634
:104FC000BB627B68002B04D0BA6A2149786801F083
:104FD0001FFF1F4B1A6C3B681A601D4B002283F8A1
:104FE000472000232EE06FF004032BE097F83730C2
:104FF00083F00103DBB2002B22D0FB6897F834204A
:105000001A70BB6897F835201A70FB7D1A463B680A
:105010001B68934228BF13467B627B68002B09D034
:105020007B6A002B06D007F118037A6A1946786864
:1050300001F0EEFEFB7D1A463B681A60002301E09A
:105040006FF0040318463837BD4680BDA0930008B2
:105050009C8D002080B483B000AF7860044A7B68E8
:10506000136000BF0C37BD465DF8047B704700BF7E
:10507000948D002080B483B000AFEFF310837B6089
:1050800072B67B6818460C37BD465DF8047B7047E6
:1050900080B483B000AF78607B6883F3108800BF72
:1050A0000C37BD465DF8047B704780B500AFFFF755
:1050B0003DFB00BF80BD80B586B000AFF860B96031
:1050C0007A60F868FFF744FB78617A69BB689A42B6
:1050D00003D0BFF32F8F002308E0F9687868FFF74B
:1050E00046FB38613B69002BEBD10123184618378A
:1050F000BD4680BD80B584B000AF78607868FFF7AA
:1051000027FBF860FB68013379681846FFF72FFB2F
:10511000B860BB68002BF1D1FB680133184610372B
:10512000BD4680BD80B584B000AF78607868FFF779
:105130000FFBF860FB68013B79681846FFF717FB27
:10514000B860BB68002BF1D1FB68013B18461037F3
:10515000BD4680BD80B400AF034B1B681846BD46FA
:105160005DF8047B704700BF0800002080B500AFE9
:10517000FFF7DCFAFFF7E3FA00BF80BD80B588B027
:1051800000AF214B1B68BB61BB691B0C1B0413F1F7
:105190009A5F0ED1BB69FB75FB7D002B09D0FB7DAF
:1051A000FF2B06D0FB7D19461848FFF7A3FBFB7DBC
:1051B00025E0174B1B683B61164B1B68FB60164BC9
:1051C0001B68BB603A69FB685340BA6853407B6018
:1051D0007B681B0C7A6853407B607B681B0A7A688B
:1051E00053407B607B68FB77FB7F002B01D1012361
:1051F000FB77FB7FFF2B01D1FE23FB77FB7F18465C
:105200002037BD4680BD00BFFC7F0120D093000841
:105210009075FF1F9475FF1F9875FF1F80B500AF35
:10522000FFF7B6FAFFF704FBFFF7A8FF03461A469D
:10523000124B1A70124B1B6843F2280200211846C9
:1052400001F080FE482200210E4801F07BFEFFF7AE
:105250009BFB0D48FFF74EFB084B1B7819460B488C
:10526000FFF748FB0A4B19680A4B1A680A4B1B6880
:105270000A48FFF73FFB0023184680BD988D0020A9
:10528000080000209C8D0020FC930008209400085A
:105290009075FF1F9475FF1F9875FF1F34940008C9
:1052A00080B400AF024B1846BD465DF8047B7047E2
:1052B0005094000880B400AF034B1B781846BD46DD
:1052C0005DF8047B704700BF988D002080B584B0E6
:1052D00000AFF860B9607A600848FFF70BFBF96827
:1052E0000748FFF707FBB9680648FFF703FB796833
:1052F0000548FFF7FFFA72B630BFFDE7709400086B
:105300008894000894940008A09400082DE9B00344
:1053100085B000AF786039607968C81788468146E3
:105320003968C8170C46054604FB09F008FB05F16F
:105330000144A8FB042319440B464FF000004FF032
:105340000001100C40EA03401914C7E90201BB68D0
:1053500018461437BD46BDE8B00370472DE9B04389
:1053600084B000AF786039603968002908D17B6863
:10537000002B02DB6FF0004317E04FF0004314E016
:105380007968C8170A460346151414043B68DA17EF
:105390009846914642464B462046294601F012F96E
:1053A00002460B46C7E90223BB6818461037BD46C4
:1053B000BDE8B0832DE9B04388B000AFC7E9020172
:1053C000C7E90023D7E90023134301D1002338E0C4
:1053D000D7E90223134302D14FF4803331E0D7E9F8
:1053E000008942464B464FF000004FF00001990003
:1053F00041EA9271900002460B4612EB080443EB1F
:105400000905D7E90223A242AB4101D3002318E0EA
:10541000BB683A6811461846FFF7A0FFF861F969C2
:10542000F869FFF773FFB861FB6903F58032BB6968
:105430005B1013447B6179694FF48030FFF78EFF76
:10544000034618462037BD46BDE8B0832DE9B00FAE
:105450008DB000AFF861B9617A617B69002B01DC26
:10546000FB6938E07B69B3F5803F01DBBB6932E063
:10547000BB69DA17BB60FA60FB69DA179A46934694
:10548000D7E902120B46B3EB0A033B60134663EB0A
:105490000B037B60D7E90023C7E90A237B69DA178E
:1054A00098469146BB6A09FB03F2FB6A08FB03F3CB
:1054B0001344BA6AA2FB08452B441D464FF0000274
:1054C0004FF00003220C42EA05422B14C7E90823DF
:1054D0003A6AFB69134418463437BD46BDE8B00F3D
:1054E000704780B483B000AF78607B68002BB8BF92
:1054F0005B4218460C37BD465DF8047B704780B4AC
:1055000087B000AF78607B68002B01DC00231EE0D1
:105510007B68FB60FB681B0A7B617B69002B01D108
:1055200001237B6100233B610CE0FA687B69B2FBDD
:10553000F3F3BB607A69BB6813445B087B613B692A
:1055400001333B613B69072BEFDD7B691B0218468A
:105550001C37BD465DF8047B704780B582B000AF54
:10556000786028220021786801F0ECFC00BF083741
:10557000BD4680BD80B485B000AF7860396000233F
:10558000FB6007E07B68FA68396843F82210FB6823
:105590000133FB60FB68052BF4DD00BF00BF14374F
:1055A000BD465DF8047B704780B483B000AF78607F
:1055B0007B6893F82030002B06D07B68D3E9062364
:1055C000134301D0012300E0002303F00103DBB209
:1055D00018460C37BD465DF8047B704780B483B035
:1055E00000AF0346FB7197F907300B330B2B33D811
:1055F00001A252F823F000BF55560008515600088A
:105600004D56000849560008455600084156000806
:105610003D56000839560008355600083156000836
:105620002D560008295600080F4B16E00F4B14E0CA
:105630000F4B12E00F4B10E00F4B0EE00F4B0CE046
:105640000F4B0AE00F4B08E00F4B06E00F4B04E056
:105650000F4B02E00F4B00E00F4B18460C37BD46D6
:105660005DF8047B704700BFAC940008B09400085C
:10567000BC940008C8940008D0940008D89400088E
:10568000E4940008F4940008009500080C950008C4
:105690001C9500082C9500083895000880B483B04C
:1056A00000AF0346FB71FB79062B1FD801A252F80D
:1056B00023F000BFD1560008D5560008D95600087F
:1056C000DD560008E1560008E5560008E9560008D6
:1056D0000A4B0CE00A4B0AE00A4B08E00A4B06E0D2
:1056E0000A4B04E00A4B02E00A4B00E00A4B184662
:1056F0000C37BD465DF8047B704700BF409500083D
:1057000048950008549500085C95000868950008C5
:1057100074950008809500083895000880B483B01F
:1057200000AF0346FB71FB79032B13D801A252F89B
:1057300023F000BF45570008495700084D5700089F
:1057400051570008074B06E0074B04E0074B02E007
:10575000074B00E0034B18460C37BD465DF8047B51
:10576000704700BF389500088C9500089495000894
:105770009C95000880B483B000AF0346FB71FB79B1
:10578000042B17D801A252F823F000BFA15700083C
:10579000A5570008A9570008AD570008B1570008E1
:1057A000084B08E0084B06E0084B04E0084B02E019
:1057B000084B00E0084B18460C37BD465DF8047BEB
:1057C000704700BFA4950008AC950008B895000884
:1057D000C8940008C49500083895000880B485B0C6
:1057E00000AF78600B46FB700023FB600DE07A6829
:1057F000FB685B01134408331B78FA789A4201D1A5
:10580000FB680BE0FB680133FB607B6803F500532A
:105810009B68FA689A42EAD34FF0FF331846143770
:10582000BD465DF8047B704780B586B000AFF86078
:10583000B9601346FB71BB685B78FB75FA7DFB7939
:105840009A4239D0BB68FA795A70FB79032B24D07D
:10585000032B33DC012B02D0022B0FD02EE0FB6890
:1058600003F500531B6B002B2AD0FB6803F5005394
:105870001B6BBA6812781046984721E0FB6803F565
:1058800000535B6B002B1DD0FB6803F500535B6B73
:10589000BA6812781046984714E0FB6803F5005385
:1058A0009B6B002B10D0FB6803F500539B6BBA6811
:1058B00012781046984707E000BF06E000BF04E0FA
:1058C00000BF02E000BF00E000BF1837BD4680BD4A
:1058D00090B585B000AFF8600B467A60FB72FB684C
:1058E000002B02D0FB7A002B02D14FF0FF3334E0C3
:1058F0004FF401520021F86801F024FBFB68FA7AAA
:105900001A707B68002B0AD0FB6803F500531A4617
:105910007B6802F120040FCB84E80F001CE0FB68D9
:1059200003F500532033194642F210724FF0000382
:10593000C1E90023FB6803F500531A46052393626F
:10594000FB6803F50053012283F82C20FB6803F564
:105950000053002283F82D20002318461437BD463B
:1059600090BD80B584B000AF78600B46FB707B685B
:10597000002B02D0FB78002B02D14FF0FF3340E028
:10598000FB7819467868FFF729FF0346002B02DBF6
:105990006FF0050335E07B6803F500539B68FF2B30
:1059A00002D96FF001032CE07B6803F500539B687C
:1059B0005B0108337A681344FB60FB68FA781A705D
:1059C000FB6800225A70F9684FF000024FF00003A4
:1059D000C1E90223FB6800221A74FB6800225A7492
:1059E000F9684FF000024FF00003C1E906237B681D
:1059F00003F500539B6801337A6802F50052936007
:105A0000002318461037BD4680BDB0B584B000AF46
:105A100078600B46FB707B68002B02D0FB78002B74
:105A200002D14FF0FF3337E0FB7819467868FFF773
:105A3000D5FEB860BB68002B02DA6FF004032BE0E0
:105A4000BB68FB6016E0FB6801337968FA685201B5
:105A50000A4402F108017A685B01134408330C46DA
:105A60001D460FCD0FC495E80F0084E80F00FB68BA
:105A70000133FB607B6803F500539B68013BFA68C8
:105A80009A42E0D37B6803F500539B68013B7A6838
:105A900002F500529360002318461037BD46B0BD92
:105AA0002DE9B04F86B000AF78600B46FB7013460F
:105AB000BB707B68002B02D0FB78002B02D14FF02B
:105AC000FF335CE0FB7819467868FFF787FE786162
:105AD0007B69002B01DA002351E07B695B0108330D
